:100000000C94370E0C94161B0C942A1B0C94540E53
:100010000C94540E0C943E1B0C94540E0C94540EE1
:100020000C94540E0C94540E0C94540E0C94521BBD
:100030000C94540E0C94540E0C94540E0C94540EB8
:100040000C94540E0C94540E0C94540E0C94540EA8
:100050000C94540E0C94540E0C94540E0C94540E98
:100060000C94540E0C94540E2700270027002700F0
:1000700031003B0045004F00590063006D007700E0
:1000800081008C009600A000AB00B500C000CA0043
:10009000D500DF00EA00F500FF000A01150120018C
:1000A0002B01360141014C01570162016D017801BC
:1000B00084018F019B01A601B101BD01C901D401D9
:1000C000E001EC01F801040210021C0228023402D3
:1000D00040024C025902650272027E028B029702B4
:1000E000A402B102BE02CA02D702E402F202FF0277
:1000F0000C0319032703340342034F035D036B030F
:10010000780386039403A203B103BF03CD03DB038B
:10011000EA03F903070416042504340443045204D3
:100120006104700480048F049F04AE04BE04CE04F6
:10013000DE04EE04FE040E051F052F0540055005E4
:100140006105720583059405A605B705C905DA059D
:10015000EC05FE0510062206350647065A066C0613
:100160007F069206A506B906CC06E006F306070749
:100170001B073007440759076D0782079707AD072C
:10018000C207D807EE0704081A08300847085E08B7
:1001900075088C08A408BB08D308EB0804091D09DE
:1001A00035094F09680982099C09B609D009EB098C
:1001B000060A220A3D0A590A760A920AAF0ACC0AAE
:1001C000EA0A080B260B450B640B840BA40BC40B2B
:1001D000E50B060C280C4A0C6D0C900CB30CD70CDC
:1001E000FC0C210D470D6D0D940DBC0DE40D0D0E95
:1001F000360E600E8B0EB70EE40E110F3F0F6E0F12
:100200009E0FCF0F0110341068109D10D3100A11EB
:1002100043117D11B811F51133127312B512F81292
:100220003E138513CE131A146814B8140C156215F6
:10023000BB1517167716DB164317B0172118981839
:1002400015199919241AB71A541BFB1BAD1C6E1DE6
:100250003F1E241F1F2036217122DA2380257C2790
:10026000FC295C2D9132913E808386898C909396F7
:10027000999C9FA2A5A8ABAEB1B3B6B9BCBFC1C48F
:10028000C7C9CCCED1D3D5D8DADCDEE0E2E4E6E8EB
:10029000EAEBEDEFF0F1F3F4F5F6F8F9FAFAFBFC1E
:1002A000FDFDFEFEFEFFFFFFFFFFFFFFFEFEFEFD6A
:1002B000FDFCFBFAFAF9F8F6F5F4F3F1F0EFEDEBEB
:1002C000EAE8E6E4E2E0DEDCDAD8D5D3D1CECCC988
:1002D000C7C4C1BFBCB9B6B3B1AEABA8A5A29F9C01
:1002E000999693908C898683807D7A7774706D6AF5
:1002F0006764615E5B5855524F4D4A4744413F3CED
:10030000393734322F2D2B28262422201E1C1A1870
:1003100016151311100F0D0C0B0A0807060605041D
:1003200003030202020101010101010102020203B1
:10033000030405060607080A0B0C0D0F1011131510
:1003400016181A1C1E20222426282B2D2F32343753
:10035000393C3F4144474A4D4F5255585B5E6164BA
:10036000676A6D7074777A7D8000020406080A0C53
:100370000E10121416181A1C1E20222426282A2CAD
:100380002E30323436383A3C3E40424446484A4C9D
:100390004E50525456585A5C5E60626466686A6C8D
:1003A0006E70727476787A7C7E80828486888A8C7D
:1003B0008E90929496989A9C9EA0A2A4A6A8AAAC6D
:1003C000AEB0B2B4B6B8BABCBEC0C2C4C6C8CACC5D
:1003D000CED0D2D4D6D8DADCDEE0E2E4E6E8EAEC4D
:1003E000EEF0F2F4F6F8FAFCFEFFFDFBF9F7F5F398
:1003F000F1EFEFEBE9E7E5E3E1DFDDDBD9D7D5D3DB
:10040000D1CFCFCBC9C7C5C3C1BFBDBBB9B7B5B3CA
:10041000B1AFAFABA9A7A5A3A19F9D9B99979593BA
:10042000918F8F8B89878583817F7D7B79777573AA
:10043000716F6F6B69676563615F5D5B595755539A
:10044000514F4F4B49474543413F3D3B393735338A
:10045000312F2F2B29272523211F1D1B191715137A
:10046000110F0F0B09070503010000000000000039
:10047000000000000000000000000000000000007C
:10048000000000000000000000000000000000006C
:10049000000000000000000000000000000000005C
:1004A000000000000000000000000000000000004C
:1004B000000000000000000000000000000000003C
:1004C000000000000000000000000000000000002C
:1004D000000000000000000000000000000000001C
:1004E0000000000000000000000000FFFFFFFFFF11
:1004F000FFFFFFFFFFFFFFFFFFFFFFFFFFFFFFFF0C
:10050000FFFFFFFFFFFFFFFFFFFFFFFFFFFFFFFFFB
:10051000FFFFFFFFFFFFFFFFFFFFFFFFFFFFFFFFEB
:10052000FFFFFFFFFFFFFFFFFFFFFFFFFFFFFFFFDB
:10053000FFFFFFFFFFFFFFFFFFFFFFFFFFFFFFFFCB
:10054000FFFFFFFFFFFFFFFFFFFFFFFFFFFFFFFFBB
:10055000FFFFFFFFFFFFFFFFFFFFFFFFFFFFFFFFAB
:10056000FFFFFFFFFFFFFFFFFFFFFFFFFEFDFCFBA5
:10057000FAF9F8F7F6F5F4F3F2F1F0EFEEEDECEB53
:10058000EAE9E8E7E6E5E4E3E2E1E0DFDEDDDCDB43
:10059000DAD9D8D7D6D5D4D3D2D1D0CFCECDCCCB33
:1005A000CAC9C8C7C6C5C4C3C2C1C0BFBEBDBCBB23
:1005B000BAB9B8B7B6B5B4B3B2B1B0AFAEADACAB13
:1005C000AAA9A8A7A6A5A4A3A2A1A09F9E9D9C9B03
:1005D0009A999897969594939291908F8E8D8C8BF3
:1005E0008A898887868584838281807F7E7D7C7BE3
:1005F0007A797877767574737271706F6E6D6C6BD3
:100600006A696867666564636261605F5E5D5C5BC2
:100610005A595857565554535251504F4E4D4C4BB2
:100620004A494847464544434241403F3E3D3C3BA2
:100630003A393837363534333231302F2E2D2C2B92
:100640002A292827262524232221201F1E1D1C1B82
:100650001A191817161514131211100F0E0D0C0B72
:100660000A09080706050403020100FF000D1A2508
:100670002F3840474E54595E6266696C6F717375CE
:100680007778797A7B7C7D7D7E7E7E7F7F7F7F7FA2
:10069000808080808080808080808080808080805A
:1006A000808080808080808080808080808080804A
:1006B000808080808080808080808080808080803A
:1006C0008080808080808080808181818181828221
:1006D0008283838485868788898B8D8F9194979A6E
:1006E0009EA2A7ACB2B9C0C8D1DBE6F3F3E6DBD17A
:1006F000C8C0B9B2ACA7A29E9A9794918F8D8B89EE
:1007000088878685848383828282818181818180BA
:1007100080808080808080808080808080808080D9
:1007200080808080808080808080808080808080C9
:1007300080808080808080808080808080808080B9
:1007400080808080808080807F7F7F7F7F7E7E7EB4
:100750007D7D7C7B7A7978777573716F6C69666261
:100760005E59544E4740382F251A0D0000000000F6
:100770000040008000000180010002800200038030
:100780000300048004000580050006800600078041
:10079000070008800800098009000A800A000B8011
:1007A0000B000C800C000D800D000E800E000F80E1
:1007B0000F001080100011801100128012001380B1
:1007C0001300148014001580150016801600178081
:1007D000170018801800198019001A801A001B8051
:1007E0001B001C801C001D801D001E801E001F8021
:1007F0001F002080200021802100228022002380F1
:1008000023002480240025802500268026002780C0
:10081000270028802800298029002A802A002B8090
:100820002B002C802C002D802D002E802E002F8060
:100830002F00308030003180310032803200338030
:100840003300348034003580350036803600378000
:10085000370038803800398039003A803A003B80D0
:100860003B003C803C003D803D003E803E003F80A0
:100870003F00408040004180410042804200438070
:100880004300448044004580450046804600478040
:10089000470048804800498049004A804A004B8010
:1008A0004B004C804C004D804D004E804E004F80E0
:1008B0004F005080500051805100528052005380B0
:1008C0005300548054005580550056805600578080
:1008D000570058805800598059005A805A005B8050
:1008E0005B005C805C005D805D005E805E005F8020
:1008F0005F006080600061806100628062006380F0
:1009000063006480640065806500668066006780BF
:10091000670068806800698069006A806A006B808F
:100920006B006C806C006D806D006E806E006F805F
:100930006F0070807000718071007280720073802F
:1009400073007480740075807500768076007780FF
:10095000770078807800798079007A807A007B80CF
:100960007B007C807C007D807D007E807E007F809F
:100970007F0080808000818081008280820083806F
:10098000830084808400858085008680860087803F
:10099000870088808800898089008A808A008B800F
:1009A0008B008C808C008D808D008E808E008F80DF
:1009B0008F009080900091809100928092009380AF
:1009C000930094809400958095009680960097807F
:1009D000970098809800998099009A809A009B804F
:1009E0009B009C809C009D809D009E809E009F801F
:1009F0009F00A080A000A180A100A280A200A380EF
:100A0000A300A480A400A580A500A680A600A780BE
:100A1000A700A880A800A980A900AA80AA00AB808E
:100A2000AB00AC80AC00AD80AD00AE80AE00AF805E
:100A3000AF00B080B000B180B100B280B200B3802E
:100A4000B300B480B400B580B500B680B600B780FE
:100A5000B700B880B800B980B900BA80BA00BB80CE
:100A6000BB00BC80BC00BD80BD00BE80BE00BF809E
:100A7000BF00C080C000C180C100C280C200C3806E
:100A8000C300C480C400C580C500C680C600C7803E
:100A9000C700C880C800C980C900CA80CA00CB800E
:100AA000CB00CC80CC00CD80CD00CE80CE00CF80DE
:100AB000CF00D080D000D180D100D280D200D380AE
:100AC000D300D480D400D580D500D680D600D7807E
:100AD000D700D880D800D980D900DA80DA00DB804E
:100AE000DB00DC80DC00DD80DD00DE80DE00DF801E
:100AF000DF00E080E000E180E100E280E200E380EE
:100B0000E300E480E400E580E500E680E600E780BD
:100B1000E700E880E800E980E900EA80EA00EB808D
:100B2000EB00EC80EC00ED80ED00EE80EE00EF805D
:100B3000EF00F080F000F180F100F280F200F3802D
:100B4000F300F480F400F580F500F680F600F780FD
:100B5000F700F880F800F980F900FA80FA00FB80CD
:100B6000FB00FC80FC00FD80FD00FE80FE0100011A
:100B7000000100010001000100010001000100016D
:100B8000000100010001000100010001000100015D
:100B9000000100010001000100010001000200024B
:100BA0000002000200020003000300030003000330
:100BB0000004000400040004000500050005000610
:100BC00000060006000600070007000700080008EE
:100BD000000800090009000A000A000A000B000BC7
:100BE000000B000C000C000D000D000E000E000F9D
:100BF000000F000F00100010001100110012001271
:100C0000001300130014001500150016001600173D
:100C10000017001800180019001A001A001B001C09
:100C2000001C001D001D001E001F001F00200021D1
:100C30000021002200230024002400250026002695
:100C40000027002800290029002A002B002C002D55
:100C5000002D002E002F0030003100310032003313
:100C60000034003500360037003800380039003ACB
:100C7000003B003C003D003E003F00400041004280
:100C80000043004400450046004700480049004A30
:100C9000004B004C004D004E004F005000510052E0
:100CA000005300540055005600570059005A005B8D
:100CB000005C005D005E005F006100620063006434
:100CC0000065006600680069006A006B006D006ED8
:100CD000006F007000720073007400750077007878
:100CE0000079007B007C007D007F00800081008314
:100CF00000840085008700880089008B008C008EAE
:100D0000008F009000920093009500960098009943
:100D1000009B009C009E009F00A100A200A400A5D3
:100D200000A700A800AA00AB00AD00AE00B000B163
:100D300000B300B500B600B800B900BB00BD00BEEE
:100D400000C000C200C300C500C700C800CA00CC74
:100D500000CD00CF00D100D200D400D600D800D9F9
:100D600000DB00DD00DF00E000E200E400E600E878
:100D700000E900EB00ED00EF00F100F300F400F6F5
:100D800000F800FA00FC00FE00000101010301056B
:100D900001070109010B010D010F011101130115DB
:100DA00001170119011B011D011F0121012301254B
:100DB00001270129012B012D012F013101330135BB
:100DC00001370139013C013E014001420144014625
:100DD0000148014A014D014F01510153015501578D
:100DE000015A015C015E01600163016501670169EF
:100DF000016C016E01700172017501770179017B4F
:100E0000017E01800182018501870189018C018EAB
:100E10000191019301950198019A019C019F01A103
:100E200001A401A601A901AB01AD01B001B201B558
:100E300001B701BA01BC01BF01C101C401C601C9AA
:100E400001CB01CE01D101D301D601D801DB01DDF7
:100E500001E001E301E501E801EA01ED01F001F241
:100E600001F501F801FA01FD010002020205020884
:100E7000020A020D0210021202150218021B021DC4
:100E80000220022302260229022B022E0231023402
:100E900002370239023C023F024202450248024A3E
:100EA000024D0250025302560259025C025F026276
:100EB00002640267026A026D0270027302760279AE
:100EC000027C027F028202850288028B028E0291DE
:100ED00002940297029A029D02A002A402A702AA0B
:100EE00002AD02B002B302B602B902BC02C002C334
:100EF00002C602C902CC02CF02D202D602D902DC5B
:100F000002DF02E202E602E902EC02EF02F302F67D
:100F100002F902FC020003030306030A030D031097
:100F200003140317031A031E032103240328032BAE
:100F3000032E033203350338033C033F03430346C8
:100F4000034A034D035003540357035B035E0362DC
:100F500003650369036C037003730377037A037EED
:100F6000038103850389038C0390039303C71F8EBA
:100F70001F551F1C1FE31EAA1E711E381EFF1DC613
:100F80001D8D1D541D1B1DE21CA91C701C371CFE51
:100F90001BC51B8C1B531B1A1BE11AA81A6F1A3690
:100FA0001AFD19C4198B1952191919E018A7186ECE
:100FB000183518FC17C3178A1751171817DF16A60C
:100FC000166D163416FB15C215891550151715DE4A
:100FD00014A5146C143314FA13C11388134F131689
:100FE00013DD12A4126B123212F911C01187114EC7
:100FF000111511DC10A3106A103110F80FBF0F8605
:101000000F4D0F140FDB0EA20E690E300EF70DBE42
:101010000D850D4C0D130DDA0CA10C680C2F0CF680
:101020000BBD0B840B4B0B120BD90AA00A670A2EBF
:101030000AF509BC0983094A091109D8089F0866FD
:10104000082D08F407BB07820749071007D7069E3B
:101050000665062C06F305BA05810548050F05D679
:10106000049D0464042B04F203B90380032E0329B6
:101070000324031F031A03150310030B03060301C4
:1010800003FC02F702F202ED02E802E302DE02D9FB
:1010900002D402CF02CA02C502C002BB02B602B12C
:1010A00002AC02A702A2029D02980293028E02895C
:1010B0000284027F027A02750270026B026602618C
:1010C000025C02570252024D02480243023E0239BC
:1010D0000234022F022A02250220021B02160211EC
:1010E000020C0207020202FD01F801F301EE01E920
:1010F00001E401DF01DA01D501D001CB01C601C154
:1011000001BC01B701B201AD01A801A3019E019983
:101110000194018F018A01850180017B01760171B3
:10112000016C01670162015D01580153014E0149E3
:101130000144013F013A01350130012B0126012113
:10114000011C01170112010D0108010301FE00F944
:1011500000F400EF00EA00E500E000DB00D600D17B
:1011600000CC00C700C200BD00B800B30050004F63
:10117000004F004E004E004D004D004C004B004B08
:10118000004A004A0049004900480047004700461D
:101190000046004500450044004300430042004231
:1011A000004100410040003F003F003E003E003D46
:1011B000003D003C003B003B003A003A003900395A
:1011C000003800370037003600360035003500346F
:1011D0000033003300320032003100310030002F84
:1011E000002F002E002E002D002D002C002B002B98
:1011F000002A002A002900290028002700270026AD
:1012000000260025002500240023002300220022C0
:10121000002100210020001F001F001E001E001DD5
:10122000001D001C001B001B001A001A00190019E9
:1012300000180018001700160016001500150014FD
:101240000014001300120012001100110010001011
:10125000000F000E000E000D000D000C000C000B26
:10126000000A000A00090009000800080008000838
:10127000000800080008000800080008000800082E
:101280000008000800080008000800080007000720
:101290000007000700070007000700070007000716
:1012A0000007000700070007000700070006000608
:1012B00000060006000600060006000600060006FE
:1012C00000060006000600060006000600050005F0
:1012D00000050005000500050005000500050005E6
:1012E00000050005000500050005000500040004D8
:1012F00000040004000400040004000400040004CE
:1013000000040004000400040004000400030003BF
:1013100000030003000300030003000300030003B5
:1013200000030003000300030003000300020002A7
:10133000000200020002000200020002000200029D
:10134000000200020002000200020002000100018F
:101350000001000100010001000100010001000185
:101360000001000100010001000100010005000B67
:1013700000170023002F003B00470053005F006B65
:1013800000770083008F009C00A800B400C100CD4E
:1013900000DA00E600F30000010D01190126013317
:1013A0000140014D015A016801750182018F019DC3
:1013B00001AA01B801C501D301E101EE01FC010A56
:1013C00002180226023402420251025F026D027CC0
:1013D000028A029902A702B602C502D402E302F20F
:1013E00002010310031F032F033E034D035D036D32
:1013F000037C038C039C03AC03BC03CC03DC03ED34
:1014000003FD030E041E042F044004500461047203
:101410000484049504A604B804C904DB04ED04FEA6
:1014200004100523053505470559056C057F059111
:1014300005A405B705CA05DE05F105040618062C46
:10144000064006540668067C069106A506BA06CF35
:1014500006E406F9060E07240739074F0765077BE0
:10146000079107A807BE07D507EC0703081A08323B
:10147000084908610879089108AA08C208DB08F43D
:10148000080D09270940095A0974098F09A909C4D7
:1014900009DF09FB09160A320A4E0A6A0A870AA4FA
:1014A0000AC10ADE0AFC0A1A0B380B570B760B9599
:1014B0000BB50BD50BF50B160C370C580C7A0C9C96
:1014C0000CBF0CE10C050D290D4D0D710D960DBCD9
:1014D0000DE20D080E2F0E570E7F0EA80ED10EFB3B
:1014E0000E250F500F7B0FA70FD40F021030105F87
:1014F000108F10BF10F010221155118911BE11F478
:10150000112A1262129B12D4120F134B138913C7A4
:1015100013071449148B14D01416155D15A715F272
:10152000153F168E16DF1633178917E1173C189AE8
:1015300018FB186019C819331AA31A161B8F1B0C35
:101540001C8F1C181DA81D3E1EDD1E851F3620F396
:1015500020BC2194227C2378248B25BA260B288753
:10156000293A2B372D9C2F9F32B136F93C010001CF
:101570000001000100010001000100010001000163
:101580000002000200020002000300030003000347
:10159000000300040004000400040004000500052A
:1015A000000500050006000600060006000600070C
:1015B00000070007000700080008000800080008EE
:1015C0000009000900090009000A000A000A000ACF
:1015D000000B000B000B000B000C000C000C000CAF
:1015E000000D000D000D000D000E000E000E000E8F
:1015F000000F000F000F000F00100010001000116E
:10160000001100110011001200120012001200134C
:101610000013001300140014001400150015001529
:101620000015001600160016001700170017001806
:1016300000180018001900190019001A001A001AE1
:10164000001B001B001B001C001C001C001D001DBB
:10165000001D001E001E001E001F001F001F002096
:10166000002000210021002100220022002200236E
:101670000023002400240024002500250026002645
:101680000027002700270028002800290029002A19
:10169000002A002B002B002B002C002C002D002DED
:1016A000002E002E002F002F0030003000310031BE
:1016B000003200330033003400340035003500368A
:1016C000003600370038003800390039003A003B56
:1016D000003B003C003D003D003E003F003F00401D
:1016E00000410042004200430044004500450046DE
:1016F0000047004800490049004A004B004C004D9B
:10170000004E004F0050005100520053005400554D
:101710000056005700580059005B005C005D005EF9
:101720000060006100620064006500670068006A94
:10173000006C006E006F0071007300750077007917
:10174000007C007E0081008300860089008C008F71
:1017500000930097009B00A000A500AA00B100B86C
:1017600000C000CB00D700E90004014101000103E3
:101770000507090B0D0E1012141617191B1D1E203C
:1017800022232527292A2C2D2F3132343637393A76
:101790003C3D3F4142444547484A4B4C4E4F5152D5
:1017A00054555758595B5C5D5F6062636466676857
:1017B000696B6C6D6F70717274757677797A7B7CFA
:1017C0007D7E8081828384858788898A8B8C8D8EBB
:1017D0008F9092939495969798999A9B9C9D9E9F93
:1017E000A0A1A2A3A4A5A6A7A8A9AAAAABACADAE86
:1017F000AFB0B1B2B3B3B4B5B6B7B8B9B9BABBBC90
:10180000BDBEBEBFC0C1C2C2C3C4C5C6C6C7C8C9AB
:10181000C9CACBCCCCCDCECECFD0D1D1D2D3D3D4DC
:10182000D5D5D6D7D8D8D9DADADBDBDCDDDDDEDF1B
:10183000DFE0E1E1E2E2E3E4E4E5E5E6E7E7E8E86A
:10184000E9E9EAEBEBECECEDEDEEEEEFEFF0F0F1C9
:10185000F2F2F3F3F4F4F5F5F6F6F7F7F8F8F9F930
:10186000F9FAFAFBFBFCFCFDFDFEFEFFFF000000A9
:10187000000101010101020202020202030303034B
:10188000030404040404050505050506060606060A
:1018900007070707070808080809090909090A0AC4
:1018A0000A0A0B0B0B0B0B0C0C0C0C0D0D0D0D0E7B
:1018B0000E0E0E0F0F0F0F1010101011111111122C
:1018C00012121213131313141414151515151616DA
:1018D00016171717171818181919191A1A1A1B1B7F
:1018E0001B1C1C1C1C1D1D1E1E1E1F1F1F2020201C
:1018F00021212122222323232424242525262627AF
:101900002727282829292A2A2A2B2B2C2C2D2D2E33
:101910002E2F2F30303131323233333434353636A6
:1019200037373839393A3A3B3C3C3D3E3E3F4041FF
:1019300041424344444546474849494A4B4C4D4E31
:101940004F5051525354555758595A5C5D5E60611F
:1019500063646668696B6D6F717375787A7D808377
:1019600086898D91959A9FA6ADB5BFCDDF00070EF4
:10197000141B21282E34393F44494F53585D626669
:101980006A6E72767A7E8285898C8F9295989B9EFC
:10199000A1A3A6A8ABADB0B2B4B6B8BABCBEC0C223
:1019A000C3C5C7C8CACBCDCED0D1D2D3D5D6D7D850
:1019B000D9DADBDCDDDEDFE0E1E2E3E4E4E5E6E723
:1019C000E7E8E9E9EAEAEBECECEDEDEEEEEFEFF05B
:1019D000F0F1F1F1F2F2F3F3F3F4F4F4F5F5F5F5D7
:1019E000F6F6F6F7F7F7F7F7F8F8F8F8F9F9F9F97E
:1019F000F9F9FAFAFAFAFAFAFBFBFBFBFBFBFBFB41
:101A0000FCFCFCFCFCFCFCFCFCFCFDFDFDFDFDFD10
:101A1000FDFDFDFDFDFDFDFDFEFEFEFEFEFEFEFEEE
:101A2000FEFEFEFEFEFEFEFEFEFEFEFEFEFEFEFED6
:101A3000FEFFFFFFFFFFFFFFFFFFFFFFFFFFFFFFB7
:101A4000FFFFFFFFFFFFFFFFFFFFFFFFFFFFFFFFA6
:101A5000FFFFFFFFFFFFFFFFFFFFFFFFFFFFFFFF96
:101A6000FFFFFFFFFFFFFFFFFFFFFFFFFF01000280
:101A7000000200030004000500060006000700083D
:101A80000009000A000A000B000C000D000E000FF8
:101A9000000F0010001100120013001400150015B3
:101AA0000016001700180019001A001B001C001C6B
:101AB000001D001E001F0020002100220023002422
:101AC000002500260027002800280029002A002BD6
:101AD000002C002D002E002F00300031003200338A
:101AE000003400350036003700380039003A003C39
:101AF000003D003E003F00400041004200430044E2
:101B00000045004600470049004A004B004C004D8C
:101B1000004E004F00510052005300540055005633
:101B200000580059005A005B005D005E005F0060D5
:101B30000062006300640065006700680069006B74
:101B4000006C006D006F007000710073007400760F
:101B500000770078007A007B007D007E00800081A5
:101B600000830084008600870089008A008C008D35
:101B7000008F009100920094009600970099009BBE
:101B8000009C009E00A000A100A300A500A700A942
:101B900000AA00AC00AE00B000B200B400B600B8BD
:101BA00000BA00BC00BE00C000C200C400C600C82D
:101BB00000CA00CC00CE00D000D300D500D700DA98
:101BC00000DC00DE00E100E300E500E800EA00EDF3
:101BD00000F000F200F500F700FA00FD000001023D
:101BE00001050108010B010E011101140117011B70
:101BF000011E012101240128012B012F0132013690
:101C0000013A013E014101450149014D0152015690
:101C1000015A015F01630168016D01720177017C66
:101C200001810186018C01920198019E01A401AA03
:101C300001B101B801BF01C701CE01D601DF01E743
:101C400001F101FA0104020F021A022602320240D7
:101C5000024E025E026E0281029502AB02C502E2F2
:101C60000204032D036003A50311040805001124D9
:101C70001FBECFEFD8E0DEBFCDBF11E0A0E0B1E0E6
:101C8000E2E9F7E302C005900D92A431B107D9F75C
:101C900012E0A4E1B1E001C01D92AF37B107E1F756
:101CA0000E94541A0C94C71B0C940000239A259A86
:101CB000229A2A9A219A299881E58CBD08958EBD91
:101CC0000DB407FEFDCF08952A988795882787953C
:101CD000962F92959F70892B80618EBD0DB407FE63
:101CE000FDCF6295607F6EBD0DB407FEFDCF2A9AD1
:101CF000089529988EBD0DB407FEFDCF299A299825
:101D00000895CF93DF93EC013091C701332301F1A4
:101D100020917E02E22FF0E0EE0FFF1FEE0FFF1F7B
:101D2000DF01AC57BE4F8C91888311968C918983CB
:101D3000EA57FE4F808191819B838A832F5F209396
:101D40007E02203110F010927E0231503093C70194
:101D5000DF91CF910895CF93DF93EC013091C701CC
:101D6000303100F520912C01E22FF0E0EE0FFF1F43
:101D7000EE0FFF1FDF01AC57BE4F88818C93898126
:101D800011968C93EA57FE4F8A819B8191838083C1
:101D90002F5F20932C01203110F010922C013F5F17
:101DA0003093C701DF91CF910895AF92BF92CF9248
:101DB000DF92EF92FF920F931F93CF93DF93809167
:101DC000C8019091C901A091CA01B091CB010196BF
:101DD000A11DB11D8093C8019093C901A093CA01B0
:101DE000B093CB010CEC11E0CFECD1E070E2E72E28
:101DF00071E0F72E60E1C62E61E0D62EBB24AA2446
:101E0000A394F8019081F60120819923C9F489B146
:101E10008223B1F588818F5F8883843190F1F80146
:101E2000A08218828091C8019091C901A091CA0135
:101E3000B091CB01F70180839183A283B38321C04A
:101E400089B18223E9F088818F5F88838431C8F06B
:101E50009150F801908310921C01B0921D01809165
:101E6000C8019091C901F70120813181821B930B38
:101E700090931F0180931E018CE191E00E94AB0EB4
:101E80001882B3940F5F1F4F219684E090E0E80E14
:101E9000F91E0894C11CD11C93E0B91609F0B1CF0A
:101EA000DF91CF911F910F91FF90EF90DF90CF9036
:101EB000BF90AF900895219AE1E8F0E080818860BA
:101EC0008083808181608083EFE6F0E080818260A2
:101ED00080838FEC97E09093890080938800089529
:101EE00084B5816084BD84B5826084BD84B5806220
:101EF00084BD85B5816085BD559A0895E9E6F0E019
:101F0000808181608083E89A52985A9A80818460A7
:101F10008083E99A53985B9A0895EAE7F0E080811C
:101F200084608083808182608083808181608083FF
:101F3000ACE7B0E08C9180648C9380818068808372
:101F400008955198599A5098589A56985E9A579869
:101F50005F9A209A289824982C9A0895EDE6F0E04C
:101F6000808180618083E8E6F0E080818460808306
:101F700054985C9A08958091C701882309F4FDC0A4
:101F800088E191E00E94810E80911801882309F078
:101F9000F4C0209119012130C1F1213020F022300C
:101FA00009F099C062C080911A0190911B01863995
:101FB000910520F590916802992321F081E09827FE
:101FC00090936802809150028F5F8093500280311D
:101FD00010F01092500280916F008D7F80936F00FF
:101FE000E9E6F2E01192119282E0E737F807D1F7C3
:101FF000119282E0EE37F807D9F761C0809168024C
:1020000091E089278093680266C080911A019091BF
:102010001B018639910518F580916E01882319F00E
:10202000822780936E01809156018F5F80935601C5
:10203000803110F01092560180916F008D7F809357
:102040006F00EFE6F1E01192119281E0ED37F807B1
:10205000D1F7119281E0E438F807D9F730C08091C8
:102060006E01822780936E0136C080911A01909193
:102070001B018639910548F590911202992321F0B0
:1020800081E09827909312028091FA018F5F8093EC
:10209000FA01803110F01092FA0180916F008D7F6B
:1020A00080936F00E3E1F2E01192119282E0E1325D
:1020B000F807D1F7119282E0E832F807D9F780915A
:1020C0006F00826080936F0006C08091120291E0E1
:1020D00089278093120280916802882341F0E09161
:1020E0005002F0E0E050FF4F8081806806C0E09130
:1020F0005002F0E0E050FF4F808180931701809103
:102100006E01882341F0E0915601F0E0E050FF4F6E
:102110008081806806C0E0915601F0E0E050FF4FFA
:1021200080818093160180911202882341F0E09112
:10213000FA01F0E0E050FF4F8081806806C0E09136
:10214000FA01F0E0E050FF4F80818093150180910B
:102150006F008D7F80936F00809115010E94790E32
:10216000809116010E94790E809117010E94790ECC
:1021700080916F00826080936F000895E62FF0E0F9
:102180007A96EE0FFF1FE80FF91F408151819A01E7
:102190003695279536952795CA0133E0969587950C
:1021A0003A95E1F728272427CA01B5E09695879547
:1021B000BA95E1F72827922F97959927979580E070
:1021C00056954795842B952B918380830895DC0148
:1021D0009996ED91FC919A97F695E795F695E79586
:1021E000EE0FFF1FE359FA4E459154919B968D9146
:1021F0009C919C979695879596958795282F8931E0
:1022000010F424E103C0863E08F02BEE97968C91E3
:102210009797882351F097961C929797AF5BBF4F83
:1022200011961C921E92A154B040FD01EF5BFF4F2E
:1022300080819181840F951F91838083921710F480
:102240008FEF08C0A05CBF4F8C91A054B040882392
:1022500021F080E896968C93089596961C920895A6
:10226000CF93DF93EC01E9A5FAA5F695E795F695EE
:10227000E795EE0FFF1FE359FA4E459154918BA558
:102280009CA59695879596958795282F8F3010F465
:102290002CE003C0823F08F025EF5695542F4427C9
:1022A000579547958FA1882339F01FA2CF5BDF4F49
:1022B00019821882C154D040C15BDF4F8881CF544E
:1022C000D040FE01EF5BFF4F87FD04C0CA01622FC3
:1022D00070E005C060E071E0621B7109CA010E94F4
:1022E000911B80819181860F971F91838083CF5BA3
:1022F000DF4F99812E969883CF54D0409EA3C05C27
:10230000DF4F8881C054D040882319F0969590689B
:102310009EA3DF91CF910895CF92DF92EF92FF922B
:102320000F931F93CF93DF93EC01E9A5FAA5F695E0
:10233000E795F695E795EE0FFF1FE359FA4E659185
:1023400074918BA59CA59695879596958795982FC2
:102350008F3010F49CE003C0823F08F095EF7B01C2
:1023600000E010E087E0EE0CFF1C001F111F8A95B3
:10237000D1F78FA1882339F01FA2CF5BDF4F1982DD
:102380001882C154D040C15BDF4F8881CF54D04008
:10239000B1E4CB2ED12CCC0EDD1E87FD05C0292F3C
:1023A00030E040E050E008C020E031E0291B310976
:1023B000442737FD4095542FC801B7010E94A51B43
:1023C000F60180819181820F931F91838083DE01CA
:1023D000AF5BBF4F1196EC911197C15BDF4FE88364
:1023E000CF54D0402E2F30E0C90187599C4FFC01BB
:1023F000949126593C4FF90134912C91822F80956C
:10240000989FC0011124329F90011124820F931FC5
:10241000292F9EA3C05CDF4F8881C054D040882301
:1024200019F0269520682EA3DF91CF911F910F916F
:10243000FF90EF90DF90CF900895CF93DF93EC0162
:1024400029A53AA52E7F2359304FF9018591949102
:102450002BA53CA52E7F2359304FF901459154916E
:10246000DE01A15BBF4F2C912130F9F0213038F013
:10247000223009F461C0233009F0A5C064C08FA1E7
:10248000882349F0662309F41FA2C15BDF4F81E076
:102490008883CF54D040623009F093C0C15BDF4FD6
:1024A00081E08883CF54D0408CC0A0E0B0E02AAD5A
:1024B0003BAD4CAD5DAD820F931FA41FB51F8AAF1E
:1024C0009BAFACAFBDAF892F9A2FAB2FBB27A7FD1A
:1024D000BA95C05CDF4F2881C054D04090E02223E1
:1024E00029F08359964EFC01849104C08359984E7B
:1024F000FC0184918EA38EA1869580688EA38AADFF
:102500009BADACADBDAD80509040A140B0400CF44F
:102510005AC08FEF9FEFA0E0B0E08AAF9BAFACAFA7
:10252000BDAFDE01A15BBF4F613011F482E001C09D
:1025300083E08C938FEF46C08FA1882309F043C0BE
:1025400083E08C9340C0CA01A0E0B0E02AAD3BAD6F
:102550004CAD5DAD281B390B4A0B5B0B2AAF3BAF73
:102560004CAF5DAF232F342F452F552747FD5A958C
:10257000C05CDF4F8881C054D04030E0882329F010
:102580002359364EF901849104C02359374EF9017D
:1025900084918EA38EA1869580688EA38AAD9BAD13
:1025A000ACADBDADB7FF0FC01AAE1BAE1CAE1DAEBD
:1025B000DE01A15BBF4F623019F481E08C9301C052
:1025C0001C9280E88EA3DF91CF910895CF92DF9285
:1025D000EF92FF920F931F93CF93DF93EC01E9A546
:1025E000FAA5F695E795F695E795EE0FFF1FE359E7
:1025F000FA4E659174918BA59CA5969587959695B5
:102600008795982F8F3010F49CE003C0823F08F02C
:1026100095EF7B0100E010E0A7E0EE0CFF1C001F2F
:10262000111FAA95D1F78FA1882339F01FA2CF5B84
:10263000DF4F19821882C154D040C15BDF4F8881BF
:10264000CF54D040F1E4CF2ED12CCC0EDD1E87FD2F
:1026500005C0292F30E040E050E008C020E031E024
:10266000291B3109442737FD4095542FC801B70174
:102670000E94A51BF60180819181820F931F918397
:102680008083DE01AF5BBF4F1196EC911197C15B68
:10269000DF4FE883CF54D0402E2F30E0C901885956
:1026A0009D4FFC01949127593D4FF90134912C9194
:1026B000822F8095989FC0011124329F9001112490
:1026C000820F931F292F9EA3C05CDF4F8881C054C7
:1026D000D040882319F0269520682EA3DF91CF9152
:1026E0001F910F91FF90EF90DF90CF900895FC0124
:1026F00076A765A708950F931F93CF93DF938C015F
:10270000FC0164A975A981A592A58E7F8359984F74
:10271000FC0145915491005C1F4FF80180810054E9
:1027200010408823E9F5E801C15BDF4F88818823E9
:1027300051F5F80187A1882331F1D801AF5BBF4F74
:102740002D913C9111972F5F3F4F11963C932E9303
:1027500083A594A5689414F8969587951694E1F747
:102760002817390748F01D921C926417750720F04E
:1027700081E088838FEF86A3015B1F4F81E0F80122
:1027800080830F541040D801A15BBF4F8C918823E8
:10279000E9F1F80187A18823C9F51C9280E835C0CA
:1027A000F80187A1882391F117A2D801AF5BBF4F31
:1027B0002D913C9111972F5F3F4F11963C932E9393
:1027C00083A594A5E5E096958795EA95E1F7281706
:1027D0003907E0F01D921C9264177507B8F090E07D
:1027E000015B1F4FF80180810F541040882309F4CA
:1027F00091E0015B1F4FF80190830F541040992323
:1028000011F08FEF01C080E8F80186A3DF91CF912E
:102810001F910F910895DC019996ED91FC919A9783
:10282000EE7FE159F44F25913491FC01EF5BFF4FAE
:1028300080819181820F931F91838083492F82171A
:10284000930768F4FD01E05BFF4F8081A15BBF4F00
:102850008C93AF54B040D4968C91D4978083A15B75
:10286000BF4FED918C91A055B040642F70E0482F80
:1028700050E02E2F30E0E81770F4421B530B649F9A
:10288000C001659F900D749F900D1124892F990FA1
:10289000990B8E0F0EC0241B350B629FC001639FE6
:1028A000900D729F900D1124892F990F990BE81BA1
:1028B0008E2F90E09B962D913C919C97220F232F79
:1028C000221F330B3195022E02C0959587950A94ED
:1028D000E2F790E0022E02C0880F991F0A94E2F7F7
:1028E000482F96968C9396972730310541F488238C
:1028F00011F08FEF01C080E896968C930895A05C4C
:10290000BF4F8C91A054B040882321F04695406879
:1029100096964C9308951F93DC01162F97968C91F1
:102920009797882351F097961C929797AF5BBF4F6C
:1029300011961C921E92A154B0409996ED91FC9173
:102940009A97F695E795F695E795EE0FFF1FE359F1
:10295000FA4E259134919B964D915C919C9756959A
:10296000479556954795220F331FFD01EF5BFF4FAB
:1029700080819181280F391F31832083232F30E0FC
:10298000F901E359F64EE4918FEF90E0841B950B2B
:10299000289FB001299F700D389F700D11248E2F34
:1029A00090E09C01249FC001259F900D349F900DC5
:1029B0001124680F791F872F112329F4809596968B
:1029C0008C93969703C096967C939697A05CBF4F86
:1029D0008C91A054B040882339F096968C919697AC
:1029E0008695806896968C931F9108950F931F93F8
:1029F000CF93DF93EC01E9A5FAA5F695E795F69557
:102A0000E795EE0FFF1FE359FA4E25913491220FFF
:102A1000331F0BA51CA516950795169507958FA135
:102A2000882329F01AAE1BAE1CAE1DAE1FA2FE01FC
:102A3000E15BFF4F8081813049F0813020F08330AD
:102A400009F0DCC075C081E08083D8C0C901A0E076
:102A5000B0E02AAD3BAD4CAD5DAD820F931FA41F1E
:102A6000B51F8AAF9BAFACAFBDAF892F9A2FAB2FED
:102A7000BB27A7FDBA95282F662361F490E0FC01DF
:102A8000E359F64EE4916E2F70E08359974EFC01A6
:102A900024910DC0613069F490E0FC01E359F84ED7
:102AA000E4916E2F70E08359974EFC01249130E041
:102AB0000EC0623029F060E070E020E030E007C036
:102AC00030E0F901E359F74EE4916E2F70E08FEF9B
:102AD00090E0801B910BAC01249FC001259F900DBD
:102AE000349F900D1124609F9001619F300D709F65
:102AF000300D1124820F931F9EA38AAD9BADACAD08
:102B0000BDAD80509040A140B0400CF477C08FEF35
:102B10009FEFA0E0B0E08AAF9BAFACAFBDAFC15BB1
:102B2000DF4F83E08883CF54D0408FEF8EA366C001
:102B300040E050E08AAD9BADACADBDAD821B930BC8
:102B4000A40BB50B8AAF9BAFACAFBDAF892F9A2F4B
:102B5000AB2FBB27A7FDBA95662361F490E0FC017B
:102B6000E359F64EE4914E2F50E08359974EFC0105
:102B700084910DC0613069F490E0FC01E359F74E97
:102B8000E4914E2F50E08359984EFC018491E82F38
:102B90000DC0623029F040E050E0E0E0F0E007C016
:102BA000482F50E0FA01E359F74EE491F0E08FEF3F
:102BB00090E0801B910B9C01E29FC001E39F900D70
:102BC000F29F900D1124409F9001419F300D509F26
:102BD000300D1124820F931F9EA38AAD9BADACAD27
:102BE000BDADB7FF0BC01AAE1BAE1CAE1DAEC15BB8
:102BF000DF4F81E08883CF54D0401EA2C05CDF4FFE
:102C00008881C054D040882321F08EA186958068A9
:102C10008EA3DF91CF911F910F910895CF93DF93F2
:102C2000DC019996ED91FC919A97F695E795F695CA
:102C3000E795EE0FFF1FE359FA4E459154919B968D
:102C40006D917C919C97FD01EF5BFF4FAD5BBF4F9A
:102C50002D913C911197A354B04080819181280F10
:102C6000391F440F551F240F351F31832083FD0169
:102C7000E15BFF4F37FF02C0108202C081E080831A
:102C8000A15BBF4F9C91AF54B040FD01EC5AFF4F88
:102C90008081891709F444C09083ED01C05BDF4F48
:102CA000988181E098279883A05CBF4F8C91A054B5
:102CB000B0408823A9F1992399F1AE5ABF4F8C9166
:102CC000A255B040882361F19496EC919497F0E07E
:102CD00054E0EE0FFF1F5A95E1F7EA0FFB1FE80FD4
:102CE000F11D848180FD1882FD01EE5AFF4F808125
:102CF000815080838823A1F490E094968C919497DE
:102D0000882309F491E094969C93949790E095968B
:102D10008C919597882309F491E095969C939597CB
:102D200097968C919797882309F1FD01ED5BFF4FF2
:102D3000D4962D913C91D5973070D4968C91D497A0
:102D40008F70AE5ABF4F8C93A255B0407695679561
:102D500076956795629FC001639F900D729F900D5D
:102D600011249083118297961C929797FD01EF5A38
:102D7000FF4F80818F5F8083803259F41082FD0184
:102D8000ED5BFF4F80819181009719F0019791834E
:102D90008083FD01ED5AFF4F80818F5F80838031FA
:102DA00009F41082AD5ABF4F8C91A355B04095964F
:102DB000EC919597F0E094E0EE0FFF1F9A95E1F704
:102DC000EA0FFB1FE80FF11DD4968C91D4978483F2
:102DD000A05BBF4F8C91A055B040882311F08FEFBE
:102DE00001C080E896968C93DF91CF9108951F9350
:102DF000DC0199962D913C919A979B966D917C91CF
:102E00009C97D4964D915C91D59797968C91979776
:102E1000882309F49DC0E6E036952795EA95E1F709
:102E2000122FA05CBF4F8C91A054B0408823B9F002
:102E30009A012F703070812F90E02817390708F41D
:102E4000C9019496EC919497F0E024E0EE0FFF1FF7
:102E50002A95E1F7EA0FFB1FE80FF91F12C0AE5ADF
:102E6000BF4F8C91A255B0409496EC919497F0E0AE
:102E700054E0EE0FFF1F5A95E1F7EA0FFB1FE80F32
:102E8000F11D848196968C93969796968C91969741
:102E9000806896968C939697FD01EE5AFF4F80813D
:102EA0008F5F8083811708F01082AE5ABF4F8C91DC
:102EB000A255B040882309F049C044E07695679553
:102EC0004A95E1F76F33E9F1FD01ED5AFF4F80813B
:102ED0008F5F80838617A8F0108290E094968C9183
:102EE0009497882309F491E094969C93949790E0AA
:102EF00095968C919597882309F491E095969C93EB
:102F00009597FD01ED5AFF4F80818F5F808380315F
:102F100009F41082AD5ABF4F8C91A355B0409596DD
:102F2000EC919597F0E034E0EE0FFF1F3A95E1F752
:102F3000EA0FFB1FE80FF11DD4968C91D497848380
:102F400005C0A15BBF4F1C92AF54B04097961C9236
:102F50001F910895FC0187A1882351F0DF01A15B37
:102F6000BF4F90E08C91882309F491E09C9317A2C5
:102F7000E05CFF4F8081E054F040DF01A15BBF4F78
:102F8000882369F08C91882319F081A592A502C04D
:102F900083A594A5969587959695879510C08C9155
:102FA000882319F081A592A502C083A594A5A3E06A
:102FB00096958795AA95E1F786A386A1806886A352
:102FC0000895CF93DF93DC019B968D919C919C9704
:102FD00036E0969587953A95E1F7482F4F5FAF5ABF
:102FE000BF4F4C93A155B04099968D919C919A9763
:102FF0009695879596958795EFEFF0E0E81BF90B8E
:10300000EE0FFF1FE859FF4F25913491ED01C15B91
:10301000DF4F88818130A9F0813020F0823009F0C3
:1030200054C041C097968C919797882309F44DC05E
:1030300097961C9297978FEF96968C9382E0888351
:1030400044C0FD01EF5BFF4F808191810196918328
:10305000808382179307C8F1FD01E05BFF4F9081E9
:10306000941718F01882108219C0A05CBF4F8C9181
:10307000A054B040882351F0D4968C91D49780FD11
:1030800005C080E896968C93969708C08FEF969629
:103090008C9396979F5F908382E08883AF5BBF4F4E
:1030A0001D921C9212C0FD01EF5BFF4F8081918148
:1030B0000196918380838217930738F080E8969673
:1030C0008C9381E0888311821082DF91CF910895E3
:1030D0001F93DC0199962D913C919A979B964D9167
:1030E0005C919C97D4966D917C91D597FC01E15BA6
:1030F000FF4F808197969C919797882309F090C005
:10310000992309F493C0E6E036952795EA95E1F70F
:10311000122FA05CBF4F8C91A054B040882389F03F
:103120009B012F703070812F90E02817390708F429
:10313000C90121E030E002C0220F331F8A95E2F777
:103140000CC0AF5ABF4F21E030E00C9002C0220FFC
:10315000331F0A94E2F7A155B0409496EC919497EE
:10316000F0E0EE0FFF1FEA0FFB1F80819181282303
:103170003923232B11F08FEF01C080E896968C93B2
:103180009697FD01EF5AFF4F80818F5F80838117F3
:1031900008F0108264E0569547956A95E1F74F3341
:1031A00099F1AF5ABF4F8C91A155B040882389F552
:1031B000FD01EE5AFF4F80818F5F80838417A8F056
:1031C000108290E094968C919497882309F491E072
:1031D00094969C93949790E095968C9195978823DC
:1031E00009F491E095969C9395979596EC91959717
:1031F000F0E0EE0FFF1FEA0FFB1FD4968D919C911C
:10320000D5979183808305C0AE5ABF4F1C92A255BB
:10321000B040FD01E15BFF4F80818F5F808306C07E
:10322000992321F480E896968C9310821F9108953B
:10323000DC01FC01EF5BFF4F8081918189529C4F43
:1032400091838083E92FF0E0E859FD4F949199969E
:103250002D913C919A9797968C919797882309F492
:1032600048C03695279536952795822F97961C92BC
:103270009797D4962C91D497289F900111248095EC
:10328000989FC0011124820F931F892F90E09B9675
:103290002D913C919C97220F232F221F330B3195A8
:1032A000022E02C0959587950A94E2F790E0022ECF
:1032B00002C0880F991F0A94E2F796968C9396970E
:1032C0002730310541F4882311F08FEF01C080E8E9
:1032D00096968C939697A05CBF4F8C91A054B0406B
:1032E000882339F096968C91969786958068969665
:1032F0008C930895FC0180A5873009F440C0883084
:1033000070F4833051F1843028F48130F9F0823048
:1033100008F518C0853059F1863068F523C08B3028
:10332000F1F18C3028F4893091F18A30A0F52BC06E
:103330008D30E9F18D30B0F18E30E9F18F3009F048
:1033400041C03DC0CF010E94E6120895CF010E9406
:103350008C110895CF0161E002C0CF0160E00E94AE
:103360008B140895CF0160E00E94F6140895CF01F8
:103370000E94E7100895CF010E9418190895CF0107
:103380000E940B140895CF010E94AA170895CF013F
:103390000E94F7160895CF010E9468180895CF0182
:1033A00060E002C0CF0161E00E941D120895CF01CC
:1033B0000E940E160895CF010E94E1170895CF01D3
:1033C0000E947B13089587E70E94790E81E40E9492
:1033D000790E87EF0E94790E80E49FE128EC30E0BF
:1033E000F9013197F1F70197D9F7089588E790E04F
:1033F000909356028093550288E999E090935C017E
:1034000080935B0183EC91E1909300028093FF0134
:1034100093E090935B0281E0809358029093610166
:1034200080935E019093050280930202809357027D
:1034300080935D018093010242E756E050935D0264
:1034400040935C0222EE34E03093630120936201EA
:1034500080E091E090930702809306025093090266
:103460004093080230935F0220935E0290936501BF
:1034700080936401ECE2F2E089E18E5F819389330D
:10348000E1F7ECE3F2E0825081938931E1F780E7E4
:1034900090EA909329028093280282E093E7909328
:1034A0002B0280932A020895BF92CF92DF92EF926F
:1034B000FF920F931F93CF93DF930E948D0F0E9473
:1034C000700F0E947E0F0E945B0F0E94A10F0E944E
:1034D000AE0F0E94F6198FEF80937E000E94560E69
:1034E0000E94E31980917A00806480937A00E091D1
:1034F000FA01F0E0E050FF4F80810E94790EE091E8
:103500005601F0E0E050FF4F80810E94790EE0917B
:103510005002F0E0E050FF4F80810E94790E7894D5
:1035200054E4B52E45E4C42E30E4D32E22E4E22E3A
:1035300093E4F92E01E411E080917A0084FF4FC0FA
:103540009091780080917900D82FC0E0892F90E089
:103550008C2B9D2B20917C00233419F1243438F4DA
:10356000213489F02234B0F4203479F505C02434B4
:10357000F9F0253451F523C090935A0180935901F5
:1035800000937C0022C09093FC018093FB01E092A9
:103590007C001BC09093FE018093FD01F0927C00A3
:1035A00014C09093520280935102B0927C000DC0DF
:1035B0009093540280935302C0927C0006C0909373
:1035C000580180935701D0927C0080917A008061ED
:1035D00080937A0080917A00806480937A0088E2F8
:1035E00092E060E00E94BE108EE291E060E00E94F6
:1035F000BE1082ED91E060E00E94BE1080912D012E
:1036000080FF11C088E292E00E947A198EE291E078
:103610000E947A1982ED91E00E947A1980912D0121
:10362000812780932D010E94BB0F86CF1F920F929E
:103630000FB60F9211248F934A9904C081E08093B2
:103640004F0202C010924F028F910F900FBE0F9049
:103650001F9018951F920F920FB60F9211248F93FF
:103660004B9904C081E08093F90102C01092F901E6
:103670008F910F900FBE0F901F9018951F920F9271
:103680000FB60F9211248F934C9904C081E0809360
:10369000550102C0109255018F910F900FBE0F90EF
:1036A0001F9018951F920F920FB60F9211242F930F
:1036B0003F934F935F936F937F938F939F93AF93BA
:1036C000BF93EF93FF9380E060914E020E94640EDF
:1036D00081E0609154010E94640E8091F80188BDE0
:1036E00080912D01816080932D01809114018F5F65
:1036F00080931401883021F4109214010E94D50E99
:10370000FF91EF91BF91AF919F918F917F916F91B9
:103710005F914F913F912F910F900FBE0F901F908F
:103720001895AA1BBB1B51E107C0AA1FBB1FA617F8
:10373000B70710F0A61BB70B881F991F5A95A9F75A
:1037400080959095BC01CD010895A1E21A2EAA1B87
:10375000BB1BFD010DC0AA1FBB1FEE1FFF1FA21741
:10376000B307E407F50720F0A21BB30BE40BF50B3E
:10377000661F771F881F991F1A9469F760957095C7
:10378000809590959B01AC01BD01CF010895F894FF
:02379000FFCF69
:1037920077413B6B4D6E7E437F4F5F7C36793E1E99
:0437A2000140800161
:00000001FF
